:100000000C9464010C9481010C9481010C94810185
:100010000C9481010C9481010C9481010C94810158
:100020000C9481010C9481010C9481010C943E0389
:100030000C94BE030C9481010C94F3040C94810184
:100040000C9481010C9481010C9481010C94810128
:100050000C9481010C9481010C9481010C94810118
:100060000C9481010C948101E704E504C004880428
:1000700056043D046F04DE045B0442047404C804A7
:100080006A0451048304C204600447047904C6046A
:1000900065044C047E04C4040200080012001F0022
:1000A0003100470060007E009F00C500EE001B018C
:1000B0004D018201BB01F80139027E02C702130320
:1000C0006403B90311046E04CE0433059B050706CF
:1000D0007706EC066407E0076008E4086B09F70997
:1000E000870A1A0BB20B4E0CED0C900D380EE30E76
:1000F000920F4510FC10B711761239130014CB146F
:1001000099156C1643171D18FC18DE19C41AAF1B7D
:100110009D1C8F1D851E7F1F7D207F2184228E23A5
:100120009C24AE25C326DD27FA281B2A412B6A2CE6
:10013000972DC82EFD2F36317332B433F934423641
:100140008E37DF38333A8C3BE83C493EAD3F1541B2
:100150008142F1436545DD465948D9495D4BE54C3F
:10016000704E005094512B53C65466560958B059DE
:100170005B5B0B5DBE5E75602F62EE63B165786799
:100180004269116BE46CBA6E9470737255743B766D
:100190002578137A067CFB7DF57FF381F583FB855B
:1001A0000488128A238C398E529070929194B6965C
:1001B000DF980C9B3D9D729FABA1E8A329A66DA87B
:1001C000B6AA03AD53AFA8B100B45CB6BDB821BBAD
:1001D00089BDF5BF65C2D9C451C7CDC94CCCD0CEFD
:1001E00058D1E3D373D606D99EDB39DED8E07BE362
:1001F00022E6CEE87DEB2FEEE6F0A1F360F623F9E0
:10020000E901B4048207550A2B0D0510E412C61546
:10021000AC18961B841E76216C246527632A652DF5
:100220006A30743382369339A83CC23FDF420046BD
:1002300025494E4C7B4FAC52E1551A59565C975F9D
:10024000DC6224667169C16C15706E73CA762A7A95
:100250008E7DF6806284D287468BBE8E3992B995A8
:100260003D99C49C50A0DFA372A70AABA5AE44B2CF
:10027000E7B58EB939BDE8C09BC452C80CCCCBCF12
:100280008ED354D71FDBEDDEBFE296E670EA4EEE6A
:1002900030F216F6020209091902090209001010CB
:1002A00020200101000202090919020902090000C7
:1002B00000000001010007070B070B01010101020B
:1002C00007070D0D0000010011241FBECFEFD8E07D
:1002D000DEBFCDBF11E0A0E0B1E0ECE9F7E102C084
:1002E00005900D92AC30B107D9F711E0ACE0B1E068
:1002F00001C01D92A036B107E1F70E9483010C9462
:10030000CC0B0C9400000E94A2020E9417050E94D0
:10031000C5080E94840A78940E941C040E94E30885
:100320000E9401040E947B09F7CF89E0809381003D
:100330001092800010928200EFE6F0E080818660EB
:10034000808380E09AEF909389008093880088EE04
:100350009DEF90938B0080938A000895CF92DF9257
:10036000FF920F931F93DF93CF9300D00F92CDB7DF
:10037000DEB7DE011196E0E0F1E083E001900D923E
:100380008150E1F7BE016F5F7F4FDB016B01F82EFB
:10039000F3943F2D27C0A601430F511DFA010081A0
:1003A000802F90E0FC0123E0EE0FFF1F2A95E1F77C
:1003B000E81BF90BE65BFE4F21811C91812F90E039
:1003C000FC01EE0FFF1FEE0FFF1FEE0FFF1FE81BDC
:1003D000F90BE65BFE4F8181281718F40C93FA01A4
:1003E00010833F5F3330B8F211968F2D833079F64A
:1003F00040E050E0A0E098EEC92E9DEFD92EBFEF6F
:100400008E010C5F1F4FFB018081282F30E0F90126
:1004100083E0EE0FFF1F8A95E1F7E21BF30BE65B2B
:10042000FE4F8181882309F449C081818F3F09F4FF
:1004300045C0A53B80F48181853B68F0842F90E026
:10044000FC01EE0FFF1FE80FF91FE35FFE4FD282A2
:10045000C182B0834F5FF90193E0EE0FFF1F9A95C1
:10046000E1F7E21BF30BE65BFE4F8181242F30E0C6
:10047000A817C0F48581582BA1818181E82FF0E075
:10048000EE0FFF1FEA56FF4F85919491F901EE0F91
:10049000FF1FE20FF31FE35FFE4F928381835083C0
:1004A0004F5F0CC08581582BC9010197FC01EE0FED
:1004B000FF1FE80FF91FE35FFE4F50836F5F7F4F11
:1004C0006017710709F09FCFA53B80F4842F90E05F
:1004D000FC01EE0FFF1FE80FF91FE35FFE4F88EEF0
:1004E0009DEF928381838FEF80834F5F109219017C
:1004F00040931A0110921B0180914B01882311F443
:100500009FEF03C090914F019095809152018823F5
:1005100021F080915601809598238091590188237C
:1005200021F080915D018095982390931C010F909C
:100530000F900F90CF91DF911F910F91FF90DF905F
:10054000CF90089588B1817F88B987B18E6087B9CF
:100550000E94950120E030E060E072E041E050E070
:10056000F901A3E0EE0FFF1FAA95E1F7E21BF30BE1
:10057000DF01A65BBE4F11961C92119712961C923A
:10058000129714967C936E931397E05BFE4F8081D5
:100590008E7F80831C922F5F3F4FCA01022E02C0C4
:1005A000880F991F0A94E2F715968C932330310532
:1005B000B9F60E94AE01089540E050E0FA0193E0E0
:1005C000EE0FFF1F9A95E1F7E41BF50BE65BFE4F7C
:1005D00091818281981709F44AC061819181828159
:1005E000981780F48081918123813481280F391FED
:1005F0003183208381818617C0F0918182818917A0
:1006000008F513C0918182818917E0F4808191817E
:1006100023813481821B930B9183808381816817AE
:1006200020F091818281981768F4FA0183E0EE0F3F
:10063000FF1F8A95E1F7E41BF50BE65BFE4F828115
:10064000818310829A01B3E0220F331FBA95E1F73C
:10065000241B350BF901E65BFE4F918182819817CF
:1006600031F4F901E05BFE4F8081816080834F5F50
:100670005F4F4330510509F0A1CF08951F920F92AB
:100680000FB60F9211242F933F934F935F936F9365
:100690008F939F93EF93FF9380911B018823B9F56C
:1006A00080911C01809588B96091190115C00000E6
:1006B000809184009091850084179507C0F388B1DC
:1006C000F901EE0FFF1FE20FF31FE35FFE4F908172
:1006D0009095982398B96F5F8091840090918500E0
:1006E000262F30E0F901EE0FFF1FE20FF31FE35F4B
:1006F000FE4F418152818C509E4F48175907C0F2DE
:100700006093190180910C01816080930C0120910C
:10071000190180911A01281770F010921901809127
:100720000C01826080930C0188EE9DEF90938B000A
:1007300080938A0015C0822F90E0FC01EE0FFF1F0E
:10074000E80FF91FE35FFE4F8181928190938B0048
:1007500080938A00808180931B012F5F2093190171
:10076000FF91EF919F918F916F915F914F913F9189
:100770002F910F900FBE0F901F9018951F920F9200
:100780000FB60F9211242F938F939F93EF93FF93A4
:1007900088B190911B019095982398B920911901E7
:1007A00080911A01281770F01092190180910C01A4
:1007B000826080930C0188EE9DEF90938B00809374
:1007C0008A0015C0822F90E0FC01EE0FFF1FE80F9A
:1007D000F91FE35FFE4F8181928190938B0080939C
:1007E0008A00808180931B012F5F20931901FF9164
:1007F000EF919F918F912F910F900FBE0F901F90AF
:10080000189580910C0181FF07C080910C018D7FAC
:1008100080930C010E94AE0180910C0180FF0BC0FF
:1008200080910C018E7F80930C0180910C0182FDE0
:1008300002C00E94DC020895DF93CF9300D000D065
:1008400000D0CDB7DEB7CE0101960E9424058823E3
:1008500009F4C0C08981823009F05CC0EC81FD815F
:100860003497E831F10508F0B5C0EC5CFF4FEE0FAE
:10087000FF1F0590F491E02D099480E480934601D8
:1008800080E6A0C080E48093460181E69BC080E4BE
:100890008093460182E696C080E48093460183E619
:1008A00091C080E48093460184E68CC080E480930C
:1008B000460185E687C080E48093460186E682C0D3
:1008C00080E48093460187E67DC080E48093460102
:1008D00088E678C080E48093460189E673C080E4AE
:1008E0008093460180E76EC080E48093460181E7F3
:1008F00069C080E48093460182E764C080E480930D
:10090000460183E75FC080E48093460184E75AC0D4
:1009100081E55EC0873009F05DC08C819D818031AA
:10092000910509F452C081319105A0F483309105FD
:1009300069F18430910538F48130910519F10297FD
:1009400009F048C021C08430910511F10C9709F0DD
:1009500041C016C08B369105E9F08C36910530F414
:1009600081319105A1F1C897A9F528C08D3691056F
:10097000D9F08D36910598F08E36910559F519C04C
:1009800080E526C081E407C081E40AC081E40DC08F
:1009900081E410C080E48093460181E013C080E4CC
:1009A0008093460182E00EC080E48093460184E09B
:1009B00009C080E48093460183E004C080E4809312
:1009C000460186E08093450105C080E301C081E3D4
:1009D0008093460126960FB6F894DEBF0FBECDBFBA
:1009E000CF91DF9108951F920F920FB60F921124AD
:1009F0002F933F934F935F936F937F938F939F9327
:100A0000AF93BF93EF93FF930E94D905FF91EF91AE
:100A1000BF91AF919F918F917F916F915F914F9116
:100A20003F912F910F900FBE0F901F9018958AEF56
:100A300087BD8AE085BD82E080936E000E9421051B
:100A40000895289820980895FC0180913A01882300
:100A5000A9F180913B01823091F520913E013091C6
:100A60003F0180913E0190913F01232F33278095D4
:100A70009095907028173907A1F080913C019091D2
:100A80003D018E5E9748B9F48BE080933B018091E5
:100A90003E0190913F01892F992790933D018093CA
:100AA0003C0180913E0190913F01907090933F01F5
:100AB00080933E0104C080E010923A010895809135
:100AC0003B01808380913C0190913D019283818321
:100AD00080913E0190913F019483838380914001F6
:100AE000858310923F0110923E0110923D011092B9
:100AF0003C011092400181E0DFCF982F60912801E6
:100B000070913201671738F180913301681718F539
:100B100080913801292F30E04091410150914201EC
:100B2000882381F0862F90E0871B910902C0220F55
:100B3000331F8A95E2F7422B532B50934201409387
:100B4000410133C0440F551F242B352B30934201F4
:100B5000209341012AC070913401671730F18091D0
:100B60003501681710F580913801292F30E0409148
:100B7000430150914401882381F0862F90E0871B28
:100B8000910902C0220F331F8A95E2F7422B532BA3
:100B9000509344014093430108C0440F551F242B38
:100BA000352B30934401209343016F5F60932801FC
:100BB000089593B180913A01882309F052C2292FF8
:100BC000217080912701882381F5909124012223AF
:100BD00021F49F5F9093240144C29923B9F091E0DE
:100BE00090932701909325011092260110924401C1
:100BF0001092430110924201109241018FEF8093B5
:100C000028019093230110921F012BC28091210192
:100C1000909122012FEF8F3F920709F422C2019693
:100C200090932201809321011CC280912501882389
:100C300009F483C0222349F0809123018F5F8093C0
:100C40002301863A08F461C1CDC020912401822F8E
:100C500085538B3480F4809123018A3128F08134CC
:100C600028F464E972E02FC08C3028F0813218F447
:100C700065EA72E028C0822F8750853018F08750CF
:100C80008930E8F490912301892F8750853018F03E
:100C900087508930A0F490931E012C502B3018F00F
:100CA0009C509B3030F410921D0180E480931F0112
:100CB00003C081E080931D0166EB72E004C01092D6
:100CC000270160E070E080912701882331F089E2FC
:100CD00091E041E150E00E941A0B109228018091AE
:100CE0003901482F50E080FF20C0809129018930D0
:100CF000E1F02091230180912B01821760F430E014
:100D000090E0880F991F821793072CF0569547950E
:100D1000842F809507C080911D01882331F456955A
:100D20004795842F81700E947D0581E08093240186
:100D30001092230110922501E8C08091260188239A
:100D400009F4D6C0222309F454C0509128016091BF
:100D50003601561789F480913701813069F49091FA
:100D6000240180912E019817E8F180912F018917B5
:100D7000C8F110923701C9C0409123014F5F4093E1
:100D800023018091390180FF1AC0242F30E0809127
:100D90002D0190E0880F991F8217930784F4252F67
:100DA00030E0862F90E002972817390744F08091B1
:100DB0003701882321F481E0809337011AC0463A35
:100DC00008F4A3C0252F30E0862F90E00197281764
:100DD000390741F480913701882321F45F5F5093F4
:100DE000280193C010922701109224011092230130
:100DF0008CC080913901282F30E09091240180FF30
:100E000045C080912B018917C0F436952795822F14
:100E1000809581700E947D058091390190E09695C2
:100E2000879581700E947D058091390190E09695AB
:100E30008795817080931D0124C080912A019817A5
:100E4000E0F020911E0180912D01821780F430E0A6
:100E500090E0880F991F821793074CF090E08091E3
:100E60001D01882309F491E090931D0102C0909127
:100E70001D01892F0E947D0504C010922701109248
:100E800023018091230180931E0115C080912A01C6
:100E90009817A0F080912B01891780F020912301F1
:100EA00080912C01281750F080912D01821730F08D
:100EB00081E00E947D051092260118C080912E01CC
:100EC000981780F080912F01891760F0909123018D
:100ED00080913001981730F080913101891710F01E
:100EE00080E0E7CF109227011092230181E005C036
:100EF000222331F4809124018F5F8093240105C067
:100F000081E080932601809323018091270188232B
:100F100009F4A7C03091280180913601381709F0F3
:100F2000A0C080913701882309F09BC06091030124
:100F300070910401809143019091440168177907F1
:100F400069F480912101909122018052934030F404
:100F5000809120018F5F8093200102C010922001B8
:100F600081E080933A0120912901223009F5332351
:100F7000F9F48091210190912201805B9440B0F4BA
:100F80008091050190910601909342018093410167
:100F9000709344016093430180914001816080938C
:100FA0004001109222011092210102C010923A01D8
:100FB00020933B01409141015091420150933D01EA
:100FC00040933C015093060140930501273069F49A
:100FD00020911F0130E08091430190914401822BC8
:100FE000932B9093440180934301209143013091CE
:100FF000440130933F0120933E0180913A018823C0
:1010000031F180913E0190913F016817790799F481
:1010100080913C0190913D014817590761F48091FE
:101020002101909122018C5D954028F4809140012E
:1010300081608093400150930601409305013093F5
:1010400004012093030110922201109221011092B9
:101050002701109244011092430110922401109232
:10106000230180913A01089590915E019E7F9093B3
:101070005E01EBE5F1E020E036E0318320838293EE
:101080003496DF0117978C918E7F8C933A9731833A
:10109000208362933B96DF011E978C918E7F8C9309
:1010A00071973183208342930895813041F18230DA
:1010B00021F480E06FEF40E062C0833009F44EC05D
:1010C000843011F48FEFF6CF853011F48FEF4FC0DD
:1010D000863019F48FEF6FEF4BC0873019F48FEF24
:1010E0006FE7E9CF883021F48FE76FEF4FE747C014
:1010F000893019F48FE76FE73BC0803619F48FEF22
:1011000060E0D9CF813619F48FEF66E6D4CF82360E
:1011100019F48FEF6CECCFCF833611F48CECCACF7F
:10112000843611F486E6C6CF853619F2863621F468
:1011300080E06FEF46E623C0873621F480E06FEF52
:101140004CEC1DC0883619F480E06CEC11C0893677
:1011500019F480E06CE40CC0803711F480E007C023
:10116000813711F480E803C0823721F486EE60E015
:101170004FEF05C0833729F48FEF60E043EB0E9407
:10118000340885E080934901089580E090E00E9452
:10119000230B803419F0813479F407C08093460121
:1011A00081E090E00E94230B0BC08093460181E018
:1011B00090E00E94230B04C081E48093460181E00B
:1011C00080934501089580914601882309F45DC00C
:1011D00080914601813439F1823448F4813309F435
:1011E00045C08034C1F0803309F04DC034C0803533
:1011F00021F0813509F047C009C080E060E040E09F
:101200000E94340885E0809349013DC00E94C508D2
:101210000E94E30838C0809145010E94550880E093
:1012200090E060E40FC090914501809149018917D9
:1012300051F180914501809349010E94640A80E048
:1012400090E061E40E942B0B6091450181E090E009
:101250000E942B0B18C080914701909148012FE00C
:101260008030920780F4880F991F09C08091470150
:10127000909148018131910530F096958795909332
:1012800048018093470110924601089590E0FC01C7
:1012900023E0EE0FFF1F2A95E1F7E81BF90BE65B51
:1012A000FE4F6283438354830895582F40E020E02B
:1012B00030E061E070E0F901A3E0EE0FFF1FAA95B6
:1012C000E1F7E21BF30BE05BFE4F808180FF0BC078
:1012D000CB01022E02C0880F991F0A94E2F7482B17
:1012E00080818E7F80832F5F3F4F2330310519F738
:1012F000842F8523089580914901853009F4E3C046
:101300008130B9F587E00E945509882309F4DBC0D4
:101310000E940A0B61E870E00E94920A80914701E6
:10132000909148016093530180935401909355012B
:101330000E940A0B61E870E00E94920A80914701C6
:101340009091480160935A0180935B0190935C01F6
:101350000E940A0B61E870E00E94920A80914701A6
:101360009091480160934C0180934D0190934E0100
:101370000895823009F058C087E00E9455098823FB
:1013800009F4A1C080915F01882389F50E940A0BAE
:1013900061E870E00E94920A8091470190914801B3
:1013A0006093530180935401909355010E940A0B5E
:1013B00061E870E00E94920A809147019091480193
:1013C00060935A0180935B0190935C010E940A0B29
:1013D00061E870E00E94920A809147019091480173
:1013E00060934C0180934D0190934E0118C0813061
:1013F000B1F480914701909148011092530180937C
:1014000054019093550110924C0180934D0190939B
:101410004E0110925A0180935B0190935C0181E030
:1014200090915F01891B49C0843031F580915F0143
:101430008823C9F40E940A0B61E870E00E94920AB6
:10144000609359010E940A0B61E870E00E94920AC1
:10145000609352010E940A0B61E870E00E94920AB8
:1014600060934B0127C0803829F5109259011092E2
:10147000520110924B011EC0833029F580915F010B
:10148000882341F48FEF8093590180935201809318
:101490004B0107C0803829F480E060E040E00E9402
:1014A000340880915F01813859F487E00E94550922
:1014B000882349F080915F018F5F80935F010895D9
:1014C0008F5F80935F01089580914901853019F401
:1014D00081E08093490180914901823041F480E0AC
:1014E00060E040E00E94340810925F01089581306E
:1014F00031F48FEF6FEF4FEF0E943408089584307E
:1015000011F410925F01089586E299E00E940F0B9A
:1015100080E490E0909348018093470185E08093B8
:101520004901089597FB092E07260AD077FD04D0BC
:101530000CD006D000201AF4709561957F4F089565
:10154000F6F7909581959F4F0895AA1BBB1B51E11B
:1015500007C0AA1FBB1FA617B70710F0A61BB70B23
:10156000881F991F5A95A9F780959095BC01CD01C8
:101570000895A0E0B0E0EFEBFAE00C947B0BEC01F7
:10158000A880B980CA80DB80A114B104C104D10451
:1015900041F484E2A82E89EDB82E8BE5C82E87E0B1
:1015A000D82EC601B5012DE133EF41E050E00E9495
:1015B000580B27EA31E440E050E00E94390B7B01F0
:1015C0008C01C601B5012DE133EF41E050E00E94EE
:1015D000580BCA01B9012CEE34EF4FEF5FEF0E94B8
:1015E000390B6E0D7F1D801F911F97FF04C0615046
:1015F000704080409048688379838A839B839B01F5
:101600003F77C901CDB7DEB7EAE00C94970B0E9493
:10161000B90A089587E091E00E94B90A0895A0E010
:10162000B0E08093070190930801A0930901B09363
:101630000A010895FB01DC0102C005900D924150A2
:101640005040D8F70895F999FECF92BD81BDF89A20
:10165000992780B50895262FF999FECF1FBA92BD1C
:1016600081BD20BD0FB6F894FA9AF99A0FBE019683
:101670000895629FD001739FF001829FE00DF11DDC
:10168000649FE00DF11D929FF00D839FF00D749FFC
:10169000F00D659FF00D9927729FB00DE11DF91FA8
:1016A000639FB00DE11DF91FBD01CF011124089505
:1016B00097FB092E05260ED057FD04D04BD00AD03B
:1016C000001C38F450954095309521953F4F4F4F71
:1016D0005F4F0895F6F790958095709561957F4FCF
:1016E0008F4F9F4F08952F923F924F925F926F922C
:1016F0007F928F929F92AF92BF92CF92DF92EF92A2
:10170000FF920F931F93CF93DF93CDB7DEB7CA1B22
:10171000DB0B0FB6F894DEBF0FBECDBF09942A884D
:10172000398848885F846E847D848C849B84AA84F5
:10173000B984C884DF80EE80FD800C811B81AA8182
:10174000B981CE0FD11D0FB6F894DEBF0FBECDBF4D
:10175000ED010895A1E21A2EAA1BBB1BFD010DC0CD
:10176000AA1FBB1FEE1FFF1FA217B307E407F50751
:1017700020F0A21BB30BE40BF50B661F771F881F2D
:10178000991F1A9469F760957095809590959B01C3
:0C179000AC01BD01CF010895F894FFCF1B
:0C179C00000102FFFFFFFF010000000041
:00000001FF
