:100000000C9464010C9481010C9481010C94810185
:100010000C9481010C9481010C9481010C94810158
:100020000C9481010C9481010C9481010C9439038E
:100030000C94BC030C9481010C94E7040C94810192
:100040000C9481010C9481010C9481010C94810128
:100050000C9481010C9481010C9481010C94810118
:100060000C9481010C948101DB04D904B40488044C
:1000700056043D046F04D2045B0442047404BC04BF
:100080006A0451048304B604600447047904BA0482
:1000900065044C047E04B8040200080012001F002E
:1000A0003100470060007E009F00C500EE001B018C
:1000B0004D018201BB01F80139027E02C702130320
:1000C0006403B90311046E04CE0433059B050706CF
:1000D0007706EC066407E0076008E4086B09F70997
:1000E000870A1A0BB20B4E0CED0C900D380EE30E76
:1000F000920F4510FC10B711761239130014CB146F
:1001000099156C1643171D18FC18DE19C41AAF1B7D
:100110009D1C8F1D851E7F1F7D207F2184228E23A5
:100120009C24AE25C326DD27FA281B2A412B6A2CE6
:10013000972DC82EFD2F36317332B433F934423641
:100140008E37DF38333A8C3BE83C493EAD3F1541B2
:100150008142F1436545DD465948D9495D4BE54C3F
:10016000704E005094512B53C65466560958B059DE
:100170005B5B0B5DBE5E75602F62EE63B165786799
:100180004269116BE46CBA6E9470737255743B766D
:100190002578137A067CFB7DF57FF381F583FB855B
:1001A0000488128A238C398E529070929194B6965C
:1001B000DF980C9B3D9D729FABA1E8A329A66DA87B
:1001C000B6AA03AD53AFA8B100B45CB6BDB821BBAD
:1001D00089BDF5BF65C2D9C451C7CDC94CCCD0CEFD
:1001E00058D1E3D373D606D99EDB39DED8E07BE362
:1001F00022E6CEE87DEB2FEEE6F0A1F360F623F9E0
:10020000E901B4048207550A2B0D0510E412C61546
:10021000AC18961B841E76216C246527632A652DF5
:100220006A30743382369339A83CC23FDF420046BD
:1002300025494E4C7B4FAC52E1551A59565C975F9D
:10024000DC6224667169C16C15706E73CA762A7A95
:100250008E7DF6806284D287468BBE8E3992B995A8
:100260003D99C49C50A0DFA372A70AABA5AE44B2CF
:10027000E7B58EB939BDE8C09BC452C80CCCCBCF12
:100280008ED354D71FDBEDDEBFE296E670EA4EEE6A
:1002900030F216F6020209091902090209001010CB
:1002A00020200101000202090919020902090000C7
:1002B00000000001010007070B070B01010101020B
:1002C00007070D0D0000010011241FBECFEFD8E07D
:1002D000DEBFCDBF11E0A0E0B1E0E4EBF7E102C08A
:1002E00005900D92AC30B107D9F711E0ACE0B1E068
:1002F00001C01D92A036B107E1F70E9483010C9462
:10030000D80B0C9400000E94A2020E940B050E94D0
:1003100028080E94A70A78940E941C040E94E908F9
:100320000E9401040E949E09F7CF89E0809381001A
:100330001092800010928200EFE6F0E080818660EB
:10034000808380E09AEF909389008093880088EE04
:100350009DEF90938B0080938A000895DF92EF9237
:10036000FF920F931F93DF93CF9300D00F92CDB7DF
:10037000DEB7DE011196E0E0F1E083E001900D923E
:100380008150E1F7DE011196CD0120E07D01322F91
:100390003F5F232F29C0A701420F511DFA01708131
:1003A000072F10E0F80163E0EE0FFF1F6A95E1F7F9
:1003B000E01BF10BE65BFE4FD180FC016081062F54
:1003C00010E0F801EE0FFF1FEE0FFF1FEE0FFF1FF3
:1003D000E01BF10BE65BFE4FE181DE1620F4FC0131
:1003E0007083FA0160832F5F2330A8F20196232FD8
:1003F000333069F68E010C5F1F4F20E090E080E003
:1004000068EE7DEF3FEF4C9150E0FA01EE0FFF1FD9
:10041000EE0FFF1FEE0FFF1FE41BF50BE65BFE4F19
:10042000E180EE2009F44BC0E180FF24FA94EF1440
:1004300009F445C0253B80F4E181E53B68F0E82EF6
:10044000FF24F701EE0FFF1FEE0DFF1DE35FFE4FD0
:100450007283618330838F5FFA01EE0FFF1FEE0F0F
:10046000FF1FEE0FFF1FE41BF50BE65BFE4FE18065
:10047000482F50E02E15B8F42581922B2181E1817F
:10048000F0E0EE0FFF1FEA56FF4FE590F490FA01FF
:10049000EE0FFF1FE40FF51FE35FFE4FF282E182D4
:1004A00090838F5F0CC0E5819E2B41505040FA0134
:1004B000EE0FFF1FE40FF51FE35FFE4F90831196D1
:1004C000A017B10709F09FCF253B80F4282F30E01B
:1004D000F901EE0FFF1FE20FF31FE35FFE4F28EE5F
:1004E0003DEF328321839FEF90838F5F109219013C
:1004F00080931A0110921B0180914B01882311F403
:100500008FEF03C080914F01809590915201992304
:1005100021F090915601909589239091590199234A
:1005200021F090915D019095892380931C010F909B
:100530000F900F90CF91DF911F910F91FF90EF904F
:10054000DF90089588B1817F88B987B18E6087B9BF
:100550000E94950180E090E060E072E041E050E0B0
:100560009C01E3E0220F331FEA95E1F7281B390BCA
:10057000F901E65BFE4F1182128274836383D90115
:10058000A05BBE4F3C913E7F3C93108201969A0146
:10059000082E02C0220F331F0A94E2F7258383300E
:1005A0009105F1F60E94AE01089580E090E0FC0113
:1005B00023E0EE0FFF1F2A95E1F7E81BF90BE65B3E
:1005C000FE4F31812281321709F44DC041813181C2
:1005D0002281321780F46081718123813481260F5A
:1005E000371F3183208321812417C0F0318122817C
:1005F000231708F513C0318122812317E0F42081ED
:10060000318163817481261B370B318320832181E3
:10061000421720F031812281321768F4FC01B3E0E7
:10062000EE0FFF1FBA95E1F7E81BF90BE65BFE4FF3
:10063000228121831082FC01A3E0EE0FFF1FAA9507
:10064000E1F7E81BF90BDF01A65BBE4F11963C9169
:10065000119712962C911297321729F4E05BFE4FF6
:1006600020812160208301968330910509F09FCF7E
:1006700008951F920F920FB60F9211242F933F935C
:100680004F935F936F937F938F939F93EF93FF931A
:1006900080911B018823C1F580911C01809588B948
:1006A0009091190115C0000040918400509185007F
:1006B00046175707C0F348B1F901EE0FFF1FE20FCD
:1006C000F31FE35FFE4F80818095842388B99F5F8D
:1006D0004091840050918500292F30E0F901EE0F00
:1006E000FF1FE20FF31FE35FFE4F618172814C50E9
:1006F0005E4F64177507C0F2EDE0F1E094878091DA
:100700000C01816080930C018091190190911A0174
:10071000891770F01092190180910C01826080930A
:100720000C0188EE9DEF90938B0080938A0015C09A
:10073000282F30E0F901EE0FFF1FE20FF31FE35FF8
:10074000FE4F2181328130938B0020938A0090816B
:1007500090931B018F5F80931901FF91EF919F91FF
:100760008F917F916F915F914F913F912F910F905A
:100770000FBE0F901F9018951F920F920FB60F92F9
:1007800011242F933F938F939F93EF93FF9398B1EF
:1007900080911B018095892388B9809119019091DE
:1007A0001A01891770F01092190180910C01826072
:1007B00080930C0188EE9DEF90938B0080938A00CC
:1007C00015C0282F30E0F901EE0FFF1FE20FF31FD5
:1007D000E35FFE4F2181328130938B0020938A00AA
:1007E000908190931B018F5F80931901FF91EF918E
:1007F0009F918F913F912F910F900FBE0F901F905F
:10080000189580910C01827039F080910C018D7FD8
:1008100080930C010E94AE0180910C01817059F00F
:1008200080910C018E7F80930C0180910C0184706B
:1008300011F40E94D5020895DF93CF9300D000D029
:1008400000D0CDB7DEB7CE0101960E9418058823EF
:1008500009F4B4C08981823009F05CC0EC81FD816B
:100860003497E831F10508F0A9C0EC5CFF4FEE0FBA
:10087000FF1F0590F491E02D099480E480934601D8
:1008800080E694C080E48093460181E68FC080E4D6
:100890008093460182E68AC080E48093460183E625
:1008A00085C080E48093460184E680C080E4809324
:1008B000460185E67BC080E48093460186E676C0EB
:1008C00080E48093460187E671C080E4809346010E
:1008D00088E66CC080E48093460189E667C080E4C6
:1008E0008093460180E762C080E48093460181E7FF
:1008F0005DC080E48093460182E758C080E4809325
:10090000460183E753C080E48093460184E74EC0EC
:1009100081E552C0873009F051C08C819D818130C2
:10092000910521F18230910519F18330910511F182
:100930008430910509F18C309105B1F08031910539
:10094000C1F181319105B9F18833910559F18B36A7
:100950009105A1F08C369105B1F08D369105C1F06D
:100960008E36910559F519C080E526C081E407C08F
:1009700081E40AC081E40DC081E410C080E480936A
:10098000460181E013C080E48093460182E00EC0FE
:1009900080E48093460184E009C080E480934601AE
:1009A00083E004C080E48093460186E080934501A3
:1009B00005C080E301C081E38093460126960FB60F
:1009C000F894DEBF0FBECDBFCF91DF9108951F9287
:1009D0000F920FB60F9211242F933F934F935F9373
:1009E0006F937F938F939F93AF93BF93EF93FF93F7
:1009F0000E94CD05FF91EF91BF91AF919F918F9193
:100A00007F916F915F914F913F912F910F900FBE0A
:100A10000F901F9018958AEF87BD8AE085BD82E010
:100A200080936E000E9415050895289820980895D7
:100A3000FC0180913A018823B1F180913B01823021
:100A400099F580913E0190913F0120913E013091B6
:100A50003F01892F99272095309530708217930791
:100A6000A9F080913C0190913D0127E88E3E9207CC
:100A7000B9F48BE080933B0180913E0190913F015E
:100A8000892F992790933D0180933C0180913E01ED
:100A900090913F01907090933F0180933E0104C07C
:100AA00080E010923A01089580913B01808380910B
:100AB0003C0190913D019283818380913E01909110
:100AC0003F019483838380914001858310923F018D
:100AD00010923E0110923D0110923C011092400193
:100AE00081E0DFCF90912801E09132019E1738F12B
:100AF00020913301921718F560913801282F30E0CA
:100B00004091410150914201662381F0692F70E0CC
:100B10006E1B710902C0220F331F6A95E2F7242B66
:100B2000352B309342012093410133C0440F551FB0
:100B3000422B532B50934201409341012AC0E09134
:100B400034019E1730F120913501921710F5609114
:100B50003801282F30E04091430150914401662331
:100B600081F0692F70E06E1B710902C0220F331FE4
:100B70006A95E2F7242B352B3093440120934301EF
:100B800008C0440F551F422B532B509344014093F0
:100B900043019F5F90932801089583B190913A019A
:100BA000992309F052C2817090912701992381F510
:100BB00090912401882321F49F5F9093240145C2E2
:100BC0009923B9F081E08093270180932501109249
:100BD000260110924401109243011092420110929A
:100BE00041019FEF909328018093230110921F01F0
:100BF0002CC280912101909122012FEF8F3F92070B
:100C000009F423C2019690932201809321011DC211
:100C100090912501992309F481C0882349F080919E
:100C200023018F5F80932301863A08F45FC1CCC013
:100C300090912401892F85538B3480F48091230176
:100C40008A3128F0813428F464E972E02FC08C30B6
:100C500028F0813218F465EA72E028C0892F8750A5
:100C6000853018F087508930E8F480912301282FCF
:100C70002750253018F027502930A0F480931E010A
:100C80009C509B3018F08C508B3030F410921D012A
:100C900080E480931F0103C081E080931D0166EB17
:100CA00072E004C01092270160E070E0809127019B
:100CB000882331F089E291E041E150E00E94150B78
:100CC000109228018091390190E080FF1FC020918F
:100CD00029012930D9F03091230120912B012317CC
:100CE00060F4432F50E030E0220F331F2417350704
:100CF00024F096958795809506C020911D012223AA
:100D000029F49695879581700E94720581E0809301
:100D100024011092230110922501E8C09091260130
:100D2000992309F4D6C0882309F455C0909128016D
:100D300020913601921789F480913701813069F44E
:100D40008091240190912E018917F0F190912F014B
:100D50009817D0F110923701C9C0809123018F5F9D
:100D6000809323013091390130FF1BC0682F70E060
:100D700040912D0150E0440F551F461757078CF442
:100D8000692F70E0422F50E04250504064177507C1
:100D900044F030913701332321F481E0809337010F
:100DA0001AC0863A08F4A2C0492F50E030E0215022
:100DB00030404217530741F480913701882321F4D2
:100DC0009F5F9093280192C01092270110922401F6
:100DD000109223018BC02091390130E090912401C1
:100DE00020FF45C080912B018917C0F4C901969559
:100DF0008795809581700E9472058091390190E0FD
:100E00009695879581700E9472058091390190E0D6
:100E100096958795817080931D0124C080912A0149
:100E20009817E0F090911E0180912D01891788F4A8
:100E3000292F30E090E0880F991F821793074CF01C
:100E400080E090911D01992309F481E080931D01B8
:100E500002C080911D010E94720504C010922701FA
:100E6000109223018091230180931E0115C080916F
:100E70002A019817A0F080912B01891780F08091AA
:100E8000230120912C01821750F020912D01281769
:100E900030F081E00E9472051092260118C0809106
:100EA0002E01981780F080912F01891760F08091B2
:100EB000230190913001891730F0909131019817FA
:100EC00010F080E0E7CF109227011092230181E01B
:100ED00005C0882331F4809124018F5F8093240121
:100EE00005C081E080932601809323018091270132
:100EF000882309F4AAC0909128018091360198179F
:100F000009F0A3C080913701882309F09EC0209189
:100F10000301309104014091430150914401241791
:100F2000350771F4409121015091220163E0403274
:100F3000560730F4809120018F5F8093200102C01A
:100F40001092200181E080933A01409129014230C2
:100F500011F5992301F5809121019091220154E02E
:100F6000803B9507B0F48091050190910601909324
:100F700042018093410130934401209343018091C9
:100F80004001816080934001109222011092210162
:100F900002C010923A0140933B018091410190912F
:100FA000420190933D0180933C0190930601809310
:100FB0000501473069F460911F0170E040914301E1
:100FC00050914401462B572B5093440140934301C9
:100FD000409143015091440150933F0140933E01A1
:100FE00060913A01662339F160913E0170913F01B1
:100FF00026173707A1F420913C0130913D0182175B
:10100000930769F4209121013091220165E02C3D84
:10101000360728F4209140012160209340019093ED
:10102000060180930501509304014093030110923F
:101030002201109221011092270110924401109276
:101040004301109224011092230180913A010895E6
:10105000F999FECF80E090E092BD81BDF89A80B50D
:10106000803419F0813489F405C080934601F999E0
:10107000FECF04C080934601F999FECF81E090E055
:1010800092BD81BDF89A80B504C081E48093460189
:1010900081E08093450108952EE531E090915E0155
:1010A0009E7F90935E01D9011397E0E0F6E01196E0
:1010B000FC93EE93D90114978C93D90117978C91D7
:1010C0008E7F8C93D9011A971196FC93EE93D901D8
:1010D0001B976C93D9011E978C918E7F8C93D901AD
:1010E00051971196FC93EE9322513040F9014083C1
:1010F0000895813041F1823021F480E06FEF40E0CB
:1011000062C0833009F44EC0843011F48FEFF6CF03
:10111000853011F48FEF4FC0863019F48FEF6FEFE9
:101120004BC0873019F48FEF6FE7E9CF883021F497
:101130008FE76FEF4FE747C0893019F48FE76FE70C
:101140003BC0803619F48FEF60E0D9CF813619F4B7
:101150008FEF66E6D4CF823619F48FEF6CECCFCFE9
:10116000833611F48CECCACF843611F486E6C6CFF0
:10117000853619F2863621F480E06FEF46E623C00B
:10118000873621F480E06FEF4CEC1DC0883619F4EF
:1011900080E06CEC11C0893619F480E06CE40CC07E
:1011A000803711F480E007C0813711F480E803C074
:1011B000823721F486EE60E04FEF05C0833729F4D3
:1011C0008FEF60E043EB0E944C0885E0809349017B
:1011D000089580914601882309F47CC080914601DE
:1011E000803309F45DC0813309F465C08034B1F007
:1011F000813459F1803521F0813509F069C009C089
:1012000080E060E040E00E944C0885E08093490166
:101210005FC00E9428080E94E9085AC080914501D9
:101220000E947908F999FECF1FBA80E090E092BD44
:1012300081BD80E480BD0FB6F894FA9AF99A0FBE8A
:1012400080914501F999FECF1FC080914501909191
:101250004901981709F43CC08091450180934901E8
:101260000E94870AF999FECF1FBA80E090E092BDF4
:1012700081BD81E480BD0FB6F894FA9AF99A0FBE49
:1012800080914501F999FECF1FBA21E030E032BDCF
:1012900021BD80BD0FB6F894FA9AF99A0FBE18C016
:1012A00080914701909148012FE08030920780F4AF
:1012B000880F991F09C080914701909148018131A1
:1012C000910530F09695879590934801809347015A
:1012D00010924601089590E0FC0123E0EE0FFF1FFD
:1012E0002A95E1F7E81BF90BE65BFE4F6283438327
:1012F0005483089520E030E090E061E070E0F9016F
:1013000043E0EE0FFF1F4A95E1F7E21BF30BE05BB2
:10131000FE4F4081417059F0AB01022E02C0440FD4
:10132000551F0A94E2F7942B40814E7F40832F5F34
:101330003F4F2330310519F78923089580914901E2
:10134000853009F4E3C08130B9F587E00E947A095D
:10135000882309F4DBC00E94050B61E870E00E945D
:101360001E0B909147018091480160935301909327
:101370005401809355010E94050B61E870E00E94C2
:101380001E0B909147018091480160935A01909300
:101390005B0180935C010E94050B61E870E00E9494
:1013A0001E0B909147018091480160934C019093EE
:1013B0004D0180934E010895823009F058C087E0B6
:1013C0000E947A09882309F4A1C080915F018823D3
:1013D00089F50E94050B61E870E00E941E0B909158
:1013E0004701809148016093530190935401809389
:1013F00055010E94050B61E870E00E941E0B909160
:1014000047018091480160935A0190935B0180935A
:101410005C010E94050B61E870E00E941E0B909138
:1014200047018091480160934C0190934D01809356
:101430004E0118C08130B1F490914701809148016C
:1014400010925301909354018093550110924C01D6
:1014500090934D0180934E0110925A0190935B013D
:1014600080935C0181E090915F01891B49C08430C9
:1014700031F580915F018823C9F40E94050B61E872
:1014800070E00E941E0B609359010E94050B61E8F9
:1014900070E00E941E0B609352010E94050B61E8F0
:1014A00070E00E941E0B60934B0127C0803829F525
:1014B000109259011092520110924B011EC08330BC
:1014C00029F580915F01882341F48FEF80935901C2
:1014D0008093520180934B0107C0803829F480E04B
:1014E00060E040E00E944C0880915F01813859F42F
:1014F00087E00E947A09882349F080915F018F5F1D
:1015000080935F0108958F5F80935F0108958091BC
:101510004901853019F481E08093490180914901A6
:10152000823041F480E060E040E00E944C0810927C
:101530005F010895813031F48FEF6FEF4FEF0E941C
:101540004C080895843011F410925F01089586E2EA
:1015500099E00E940A0B80E490E090934801809308
:10156000470185E0809349010895A0E0B0E0EBEBEE
:10157000FAE00C94870BEC01E880F9800A811B816A
:10158000E114F1040105110541F484E2E82E89ED2E
:10159000F82E8BE5082F87E0182FC801B7012DE141
:1015A00033EF41E050E00E94640B27EA31E440E071
:1015B00050E00E94450B5B016C01C801B7012DE1B1
:1015C00033EF41E050E00E94640BCA01B9012CEEF8
:1015D00034EF4FEF5FEF0E94450B6A0D7B1D8C1DB2
:1015E0009D1D97FF04C06150704080409048688303
:1015F00079838A839B837F77CB01CDB7DEB7EAE01F
:101600000C94A30B0E94B50A089587E091E00E9414
:10161000B50A0895A0E0B0E0809307019093080117
:10162000A0930901B0930A010895FB01DC0102C0F7
:1016300005900D9241505040D8F7089597FB092E20
:1016400007260AD077FD04D00CD006D000201AF46B
:10165000709561957F4F0895F6F7909581959F4F0E
:101660000895AA1BBB1B51E107C0AA1FBB1FA617E9
:10167000B70710F0A61BB70B881F991F5A95A9F73B
:1016800080959095BC01CD010895629FD001739F14
:10169000F001829FE00DF11D649FE00DF11D929F0E
:1016A000F00D839FF00D749FF00D659FF00D99274D
:1016B000729FB00DE11DF91F639FB00DE11DF91F71
:1016C000BD01CF011124089597FB092E05260ED0E8
:1016D00057FD04D04BD00AD0001C38F450954095EB
:1016E000309521953F4F4F4F5F4F0895F6F79095F6
:1016F0008095709561957F4F8F4F9F4F08952F92E2
:101700003F924F925F926F927F928F929F92AF9291
:10171000BF92CF92DF92EF92FF920F931F93CF93DE
:10172000DF93CDB7DEB7CA1BDB0B0FB6F894DEBF75
:101730000FBECDBF09942A88398848885F846E849B
:101740007D848C849B84AA84B984C884DF80EE80E5
:10175000FD800C811B81AA81B981CE0FD11D0FB6EE
:10176000F894DEBF0FBECDBFED010895A1E21A2EA1
:10177000AA1BBB1BFD010DC0AA1FBB1FEE1FFF1F35
:10178000A217B307E407F50720F0A21BB30BE40B85
:10179000F50B661F771F881F991F1A9469F76095CC
:1017A0007095809590959B01AC01BD01CF01089586
:0417B000F894FFCFDB
:0C17B400000102FFFFFFFF010000000029
:00000001FF
